{
	"compilerInput": "{\"language\":\"Solidity\",\"sources\":{\"contracts/FitnessTracker.sol\":{\"content\":\"// SPDX-License-Identifier: MIT\\r\\npragma solidity >=0.8.19 <0.9.0;\\r\\n\\r\\ncontract FitnessTracker {\\r\\n    struct ExerciseData {\\r\\n        uint steps;\\r\\n        uint duration;\\r\\n        uint distance;\\r\\n    }\\r\\n\\r\\n    // struct Transfer {\\r\\n    //     uint fromMemberId;\\r\\n    //     uint toMemberId;\\r\\n    //     uint amount;\\r\\n    // }\\r\\n\\r\\n    mapping(uint => mapping(uint => ExerciseData)) public exerciseRecords;\\r\\n    // mapping(uint => uint) public balances;\\r\\n    // Transfer[] public transfers;\\r\\n\\r\\n    // 이벤트 정의\\r\\n    event ExerciseDataAdded(uint memberId, uint date, uint steps, uint duration, uint distance);\\r\\n\\r\\n    function addExerciseData(uint _memberId, uint _date, uint _steps, uint _duration, uint _distance) public {\\r\\n        exerciseRecords[_memberId][_date] = ExerciseData(_steps, _duration, _distance);\\r\\n        emit ExerciseDataAdded(_memberId, _date, _steps, _duration, _distance);\\r\\n    }\\r\\n\\r\\n    function getExerciseDataByDate(uint _memberId, uint _date) public view returns (ExerciseData memory) {\\r\\n        return exerciseRecords[_memberId][_date];\\r\\n    }\\r\\n\\r\\n    // function transferMoney(uint _fromMemberId, uint _toMemberId, uint _amount) public {\\r\\n    //     require(balances[_fromMemberId] >= _amount, \\\"잔고가 부족합니다!\\\");\\r\\n    //     balances[_fromMemberId] -= _amount;\\r\\n    //     balances[_toMemberId] += _amount;\\r\\n    //     transfers.push(Transfer(_fromMemberId, _toMemberId, _amount));\\r\\n    // }\\r\\n\\r\\n    // // 거래 기록 조회\\r\\n    // function getTransferHistory(uint _index) public view returns (uint, uint, uint) {\\r\\n    //     require(_index < transfers.length, \\\"잘못된 인덱스입니다!\\\");\\r\\n    //     Transfer storage transfer = transfers[_index];\\r\\n    //     return (transfer.fromMemberId, transfer.toMemberId, transfer.amount);\\r\\n    // }\\r\\n}\\r\\n\"}},\"settings\":{\"optimizer\":{\"enabled\":false,\"runs\":200},\"outputSelection\":{\"*\":{\"\":[\"ast\"],\"*\":[\"abi\",\"metadata\",\"devdoc\",\"userdoc\",\"storageLayout\",\"evm.legacyAssembly\",\"evm.bytecode\",\"evm.deployedBytecode\",\"evm.methodIdentifiers\",\"evm.gasEstimates\",\"evm.assembly\"]}},\"remappings\":[]}}",
	"name": "FitnessTracker",
	"bytecode": {
		"linkReferences": {},
		"object": "6080604052348015600e575f80fd5b506104248061001c5f395ff3fe608060405234801561000f575f80fd5b506004361061003f575f3560e01c8063a4ddb4a414610043578063d3e3774514610075578063d8286a1014610091575b5f80fd5b61005d6004803603810190610058919061023c565b6100c1565b60405161006c93929190610289565b60405180910390f35b61008f600480360381019061008a91906102be565b6100f1565b005b6100ab60048036038101906100a6919061023c565b610190565b6040516100b89190610384565b60405180910390f35b5f602052815f5260405f20602052805f5260405f205f9150915050805f0154908060010154908060020154905083565b6040518060600160405280848152602001838152602001828152505f808781526020019081526020015f205f8681526020019081526020015f205f820151815f015560208201518160010155604082015181600201559050507fe920c436c1f1b04eec68b8cdeb48d96c4d5d95f3cc10d4fd0a21978585c23e09858585858560405161018195949392919061039d565b60405180910390a15050505050565b6101986101e7565b5f808481526020019081526020015f205f8381526020019081526020015f206040518060600160405290815f820154815260200160018201548152602001600282015481525050905092915050565b60405180606001604052805f81526020015f81526020015f81525090565b5f80fd5b5f819050919050565b61021b81610209565b8114610225575f80fd5b50565b5f8135905061023681610212565b92915050565b5f806040838503121561025257610251610205565b5b5f61025f85828601610228565b925050602061027085828601610228565b9150509250929050565b61028381610209565b82525050565b5f60608201905061029c5f83018661027a565b6102a9602083018561027a565b6102b6604083018461027a565b949350505050565b5f805f805f60a086880312156102d7576102d6610205565b5b5f6102e488828901610228565b95505060206102f588828901610228565b945050604061030688828901610228565b935050606061031788828901610228565b925050608061032888828901610228565b9150509295509295909350565b61033e81610209565b82525050565b606082015f8201516103585f850182610335565b50602082015161036b6020850182610335565b50604082015161037e6040850182610335565b50505050565b5f6060820190506103975f830184610344565b92915050565b5f60a0820190506103b05f83018861027a565b6103bd602083018761027a565b6103ca604083018661027a565b6103d7606083018561027a565b6103e4608083018461027a565b969550505050505056fea2646970667358221220688b924ab9905a7ed880c12071cfba2c606be00a12f432077bba717d3f1e188064736f6c63430008190033",
		"opcodes": "PUSH1 0x80 PUSH1 0x40 MSTORE CALLVALUE DUP1 ISZERO PUSH1 0xE JUMPI PUSH0 DUP1 REVERT JUMPDEST POP PUSH2 0x424 DUP1 PUSH2 0x1C PUSH0 CODECOPY PUSH0 RETURN INVALID PUSH1 0x80 PUSH1 0x40 MSTORE CALLVALUE DUP1 ISZERO PUSH2 0xF JUMPI PUSH0 DUP1 REVERT JUMPDEST POP PUSH1 0x4 CALLDATASIZE LT PUSH2 0x3F JUMPI PUSH0 CALLDATALOAD PUSH1 0xE0 SHR DUP1 PUSH4 0xA4DDB4A4 EQ PUSH2 0x43 JUMPI DUP1 PUSH4 0xD3E37745 EQ PUSH2 0x75 JUMPI DUP1 PUSH4 0xD8286A10 EQ PUSH2 0x91 JUMPI JUMPDEST PUSH0 DUP1 REVERT JUMPDEST PUSH2 0x5D PUSH1 0x4 DUP1 CALLDATASIZE SUB DUP2 ADD SWAP1 PUSH2 0x58 SWAP2 SWAP1 PUSH2 0x23C JUMP JUMPDEST PUSH2 0xC1 JUMP JUMPDEST PUSH1 0x40 MLOAD PUSH2 0x6C SWAP4 SWAP3 SWAP2 SWAP1 PUSH2 0x289 JUMP JUMPDEST PUSH1 0x40 MLOAD DUP1 SWAP2 SUB SWAP1 RETURN JUMPDEST PUSH2 0x8F PUSH1 0x4 DUP1 CALLDATASIZE SUB DUP2 ADD SWAP1 PUSH2 0x8A SWAP2 SWAP1 PUSH2 0x2BE JUMP JUMPDEST PUSH2 0xF1 JUMP JUMPDEST STOP JUMPDEST PUSH2 0xAB PUSH1 0x4 DUP1 CALLDATASIZE SUB DUP2 ADD SWAP1 PUSH2 0xA6 SWAP2 SWAP1 PUSH2 0x23C JUMP JUMPDEST PUSH2 0x190 JUMP JUMPDEST PUSH1 0x40 MLOAD PUSH2 0xB8 SWAP2 SWAP1 PUSH2 0x384 JUMP JUMPDEST PUSH1 0x40 MLOAD DUP1 SWAP2 SUB SWAP1 RETURN JUMPDEST PUSH0 PUSH1 0x20 MSTORE DUP2 PUSH0 MSTORE PUSH1 0x40 PUSH0 KECCAK256 PUSH1 0x20 MSTORE DUP1 PUSH0 MSTORE PUSH1 0x40 PUSH0 KECCAK256 PUSH0 SWAP2 POP SWAP2 POP POP DUP1 PUSH0 ADD SLOAD SWAP1 DUP1 PUSH1 0x1 ADD SLOAD SWAP1 DUP1 PUSH1 0x2 ADD SLOAD SWAP1 POP DUP4 JUMP JUMPDEST PUSH1 0x40 MLOAD DUP1 PUSH1 0x60 ADD PUSH1 0x40 MSTORE DUP1 DUP5 DUP2 MSTORE PUSH1 0x20 ADD DUP4 DUP2 MSTORE PUSH1 0x20 ADD DUP3 DUP2 MSTORE POP PUSH0 DUP1 DUP8 DUP2 MSTORE PUSH1 0x20 ADD SWAP1 DUP2 MSTORE PUSH1 0x20 ADD PUSH0 KECCAK256 PUSH0 DUP7 DUP2 MSTORE PUSH1 0x20 ADD SWAP1 DUP2 MSTORE PUSH1 0x20 ADD PUSH0 KECCAK256 PUSH0 DUP3 ADD MLOAD DUP2 PUSH0 ADD SSTORE PUSH1 0x20 DUP3 ADD MLOAD DUP2 PUSH1 0x1 ADD SSTORE PUSH1 0x40 DUP3 ADD MLOAD DUP2 PUSH1 0x2 ADD SSTORE SWAP1 POP POP PUSH32 0xE920C436C1F1B04EEC68B8CDEB48D96C4D5D95F3CC10D4FD0A21978585C23E09 DUP6 DUP6 DUP6 DUP6 DUP6 PUSH1 0x40 MLOAD PUSH2 0x181 SWAP6 SWAP5 SWAP4 SWAP3 SWAP2 SWAP1 PUSH2 0x39D JUMP JUMPDEST PUSH1 0x40 MLOAD DUP1 SWAP2 SUB SWAP1 LOG1 POP POP POP POP POP JUMP JUMPDEST PUSH2 0x198 PUSH2 0x1E7 JUMP JUMPDEST PUSH0 DUP1 DUP5 DUP2 MSTORE PUSH1 0x20 ADD SWAP1 DUP2 MSTORE PUSH1 0x20 ADD PUSH0 KECCAK256 PUSH0 DUP4 DUP2 MSTORE PUSH1 0x20 ADD SWAP1 DUP2 MSTORE PUSH1 0x20 ADD PUSH0 KECCAK256 PUSH1 0x40 MLOAD DUP1 PUSH1 0x60 ADD PUSH1 0x40 MSTORE SWAP1 DUP2 PUSH0 DUP3 ADD SLOAD DUP2 MSTORE PUSH1 0x20 ADD PUSH1 0x1 DUP3 ADD SLOAD DUP2 MSTORE PUSH1 0x20 ADD PUSH1 0x2 DUP3 ADD SLOAD DUP2 MSTORE POP POP SWAP1 POP SWAP3 SWAP2 POP POP JUMP JUMPDEST PUSH1 0x40 MLOAD DUP1 PUSH1 0x60 ADD PUSH1 0x40 MSTORE DUP1 PUSH0 DUP2 MSTORE PUSH1 0x20 ADD PUSH0 DUP2 MSTORE PUSH1 0x20 ADD PUSH0 DUP2 MSTORE POP SWAP1 JUMP JUMPDEST PUSH0 DUP1 REVERT JUMPDEST PUSH0 DUP2 SWAP1 POP SWAP2 SWAP1 POP JUMP JUMPDEST PUSH2 0x21B DUP2 PUSH2 0x209 JUMP JUMPDEST DUP2 EQ PUSH2 0x225 JUMPI PUSH0 DUP1 REVERT JUMPDEST POP JUMP JUMPDEST PUSH0 DUP2 CALLDATALOAD SWAP1 POP PUSH2 0x236 DUP2 PUSH2 0x212 JUMP JUMPDEST SWAP3 SWAP2 POP POP JUMP JUMPDEST PUSH0 DUP1 PUSH1 0x40 DUP4 DUP6 SUB SLT ISZERO PUSH2 0x252 JUMPI PUSH2 0x251 PUSH2 0x205 JUMP JUMPDEST JUMPDEST PUSH0 PUSH2 0x25F DUP6 DUP3 DUP7 ADD PUSH2 0x228 JUMP JUMPDEST SWAP3 POP POP PUSH1 0x20 PUSH2 0x270 DUP6 DUP3 DUP7 ADD PUSH2 0x228 JUMP JUMPDEST SWAP2 POP POP SWAP3 POP SWAP3 SWAP1 POP JUMP JUMPDEST PUSH2 0x283 DUP2 PUSH2 0x209 JUMP JUMPDEST DUP3 MSTORE POP POP JUMP JUMPDEST PUSH0 PUSH1 0x60 DUP3 ADD SWAP1 POP PUSH2 0x29C PUSH0 DUP4 ADD DUP7 PUSH2 0x27A JUMP JUMPDEST PUSH2 0x2A9 PUSH1 0x20 DUP4 ADD DUP6 PUSH2 0x27A JUMP JUMPDEST PUSH2 0x2B6 PUSH1 0x40 DUP4 ADD DUP5 PUSH2 0x27A JUMP JUMPDEST SWAP5 SWAP4 POP POP POP POP JUMP JUMPDEST PUSH0 DUP1 PUSH0 DUP1 PUSH0 PUSH1 0xA0 DUP7 DUP9 SUB SLT ISZERO PUSH2 0x2D7 JUMPI PUSH2 0x2D6 PUSH2 0x205 JUMP JUMPDEST JUMPDEST PUSH0 PUSH2 0x2E4 DUP9 DUP3 DUP10 ADD PUSH2 0x228 JUMP JUMPDEST SWAP6 POP POP PUSH1 0x20 PUSH2 0x2F5 DUP9 DUP3 DUP10 ADD PUSH2 0x228 JUMP JUMPDEST SWAP5 POP POP PUSH1 0x40 PUSH2 0x306 DUP9 DUP3 DUP10 ADD PUSH2 0x228 JUMP JUMPDEST SWAP4 POP POP PUSH1 0x60 PUSH2 0x317 DUP9 DUP3 DUP10 ADD PUSH2 0x228 JUMP JUMPDEST SWAP3 POP POP PUSH1 0x80 PUSH2 0x328 DUP9 DUP3 DUP10 ADD PUSH2 0x228 JUMP JUMPDEST SWAP2 POP POP SWAP3 SWAP6 POP SWAP3 SWAP6 SWAP1 SWAP4 POP JUMP JUMPDEST PUSH2 0x33E DUP2 PUSH2 0x209 JUMP JUMPDEST DUP3 MSTORE POP POP JUMP JUMPDEST PUSH1 0x60 DUP3 ADD PUSH0 DUP3 ADD MLOAD PUSH2 0x358 PUSH0 DUP6 ADD DUP3 PUSH2 0x335 JUMP JUMPDEST POP PUSH1 0x20 DUP3 ADD MLOAD PUSH2 0x36B PUSH1 0x20 DUP6 ADD DUP3 PUSH2 0x335 JUMP JUMPDEST POP PUSH1 0x40 DUP3 ADD MLOAD PUSH2 0x37E PUSH1 0x40 DUP6 ADD DUP3 PUSH2 0x335 JUMP JUMPDEST POP POP POP POP JUMP JUMPDEST PUSH0 PUSH1 0x60 DUP3 ADD SWAP1 POP PUSH2 0x397 PUSH0 DUP4 ADD DUP5 PUSH2 0x344 JUMP JUMPDEST SWAP3 SWAP2 POP POP JUMP JUMPDEST PUSH0 PUSH1 0xA0 DUP3 ADD SWAP1 POP PUSH2 0x3B0 PUSH0 DUP4 ADD DUP9 PUSH2 0x27A JUMP JUMPDEST PUSH2 0x3BD PUSH1 0x20 DUP4 ADD DUP8 PUSH2 0x27A JUMP JUMPDEST PUSH2 0x3CA PUSH1 0x40 DUP4 ADD DUP7 PUSH2 0x27A JUMP JUMPDEST PUSH2 0x3D7 PUSH1 0x60 DUP4 ADD DUP6 PUSH2 0x27A JUMP JUMPDEST PUSH2 0x3E4 PUSH1 0x80 DUP4 ADD DUP5 PUSH2 0x27A JUMP JUMPDEST SWAP7 SWAP6 POP POP POP POP POP POP JUMP INVALID LOG2 PUSH5 0x6970667358 0x22 SLT KECCAK256 PUSH9 0x8B924AB9905A7ED880 0xC1 KECCAK256 PUSH18 0xCFBA2C606BE00A12F432077BBA717D3F1E18 DUP1 PUSH5 0x736F6C6343 STOP ADDMOD NOT STOP CALLER "
	},
	"abi": [
		{
			"anonymous": false,
			"inputs": [
				{
					"indexed": false,
					"internalType": "uint256",
					"name": "memberId",
					"type": "uint256"
				},
				{
					"indexed": false,
					"internalType": "uint256",
					"name": "date",
					"type": "uint256"
				},
				{
					"indexed": false,
					"internalType": "uint256",
					"name": "steps",
					"type": "uint256"
				},
				{
					"indexed": false,
					"internalType": "uint256",
					"name": "duration",
					"type": "uint256"
				},
				{
					"indexed": false,
					"internalType": "uint256",
					"name": "distance",
					"type": "uint256"
				}
			],
			"name": "ExerciseDataAdded",
			"type": "event"
		},
		{
			"inputs": [
				{
					"internalType": "uint256",
					"name": "_memberId",
					"type": "uint256"
				},
				{
					"internalType": "uint256",
					"name": "_date",
					"type": "uint256"
				},
				{
					"internalType": "uint256",
					"name": "_steps",
					"type": "uint256"
				},
				{
					"internalType": "uint256",
					"name": "_duration",
					"type": "uint256"
				},
				{
					"internalType": "uint256",
					"name": "_distance",
					"type": "uint256"
				}
			],
			"name": "addExerciseData",
			"outputs": [],
			"stateMutability": "nonpayable",
			"type": "function"
		},
		{
			"inputs": [
				{
					"internalType": "uint256",
					"name": "",
					"type": "uint256"
				},
				{
					"internalType": "uint256",
					"name": "",
					"type": "uint256"
				}
			],
			"name": "exerciseRecords",
			"outputs": [
				{
					"internalType": "uint256",
					"name": "steps",
					"type": "uint256"
				},
				{
					"internalType": "uint256",
					"name": "duration",
					"type": "uint256"
				},
				{
					"internalType": "uint256",
					"name": "distance",
					"type": "uint256"
				}
			],
			"stateMutability": "view",
			"type": "function"
		},
		{
			"inputs": [
				{
					"internalType": "uint256",
					"name": "_memberId",
					"type": "uint256"
				},
				{
					"internalType": "uint256",
					"name": "_date",
					"type": "uint256"
				}
			],
			"name": "getExerciseDataByDate",
			"outputs": [
				{
					"components": [
						{
							"internalType": "uint256",
							"name": "steps",
							"type": "uint256"
						},
						{
							"internalType": "uint256",
							"name": "duration",
							"type": "uint256"
						},
						{
							"internalType": "uint256",
							"name": "distance",
							"type": "uint256"
						}
					],
					"internalType": "struct FitnessTracker.ExerciseData",
					"name": "",
					"type": "tuple"
				}
			],
			"stateMutability": "view",
			"type": "function"
		}
	],
	"storageLayout": {
		"storage": [
			{
				"astId": 15,
				"contract": "contracts/FitnessTracker.sol:FitnessTracker",
				"label": "exerciseRecords",
				"offset": 0,
				"slot": "0",
				"type": "t_mapping(t_uint256,t_mapping(t_uint256,t_struct(ExerciseData)8_storage))"
			}
		],
		"types": {
			"t_mapping(t_uint256,t_mapping(t_uint256,t_struct(ExerciseData)8_storage))": {
				"encoding": "mapping",
				"key": "t_uint256",
				"label": "mapping(uint256 => mapping(uint256 => struct FitnessTracker.ExerciseData))",
				"numberOfBytes": "32",
				"value": "t_mapping(t_uint256,t_struct(ExerciseData)8_storage)"
			},
			"t_mapping(t_uint256,t_struct(ExerciseData)8_storage)": {
				"encoding": "mapping",
				"key": "t_uint256",
				"label": "mapping(uint256 => struct FitnessTracker.ExerciseData)",
				"numberOfBytes": "32",
				"value": "t_struct(ExerciseData)8_storage"
			},
			"t_struct(ExerciseData)8_storage": {
				"encoding": "inplace",
				"label": "struct FitnessTracker.ExerciseData",
				"members": [
					{
						"astId": 3,
						"contract": "contracts/FitnessTracker.sol:FitnessTracker",
						"label": "steps",
						"offset": 0,
						"slot": "0",
						"type": "t_uint256"
					},
					{
						"astId": 5,
						"contract": "contracts/FitnessTracker.sol:FitnessTracker",
						"label": "duration",
						"offset": 0,
						"slot": "1",
						"type": "t_uint256"
					},
					{
						"astId": 7,
						"contract": "contracts/FitnessTracker.sol:FitnessTracker",
						"label": "distance",
						"offset": 0,
						"slot": "2",
						"type": "t_uint256"
					}
				],
				"numberOfBytes": "96"
			},
			"t_uint256": {
				"encoding": "inplace",
				"label": "uint256",
				"numberOfBytes": "32"
			}
		}
	},
	"web3Deploy": "var fitnesstrackerContract = new web3.eth.Contract([{\"anonymous\":false,\"inputs\":[{\"indexed\":false,\"internalType\":\"uint256\",\"name\":\"memberId\",\"type\":\"uint256\"},{\"indexed\":false,\"internalType\":\"uint256\",\"name\":\"date\",\"type\":\"uint256\"},{\"indexed\":false,\"internalType\":\"uint256\",\"name\":\"steps\",\"type\":\"uint256\"},{\"indexed\":false,\"internalType\":\"uint256\",\"name\":\"duration\",\"type\":\"uint256\"},{\"indexed\":false,\"internalType\":\"uint256\",\"name\":\"distance\",\"type\":\"uint256\"}],\"name\":\"ExerciseDataAdded\",\"type\":\"event\"},{\"inputs\":[{\"internalType\":\"uint256\",\"name\":\"_memberId\",\"type\":\"uint256\"},{\"internalType\":\"uint256\",\"name\":\"_date\",\"type\":\"uint256\"},{\"internalType\":\"uint256\",\"name\":\"_steps\",\"type\":\"uint256\"},{\"internalType\":\"uint256\",\"name\":\"_duration\",\"type\":\"uint256\"},{\"internalType\":\"uint256\",\"name\":\"_distance\",\"type\":\"uint256\"}],\"name\":\"addExerciseData\",\"outputs\":[],\"stateMutability\":\"nonpayable\",\"type\":\"function\"},{\"inputs\":[{\"internalType\":\"uint256\",\"name\":\"\",\"type\":\"uint256\"},{\"internalType\":\"uint256\",\"name\":\"\",\"type\":\"uint256\"}],\"name\":\"exerciseRecords\",\"outputs\":[{\"internalType\":\"uint256\",\"name\":\"steps\",\"type\":\"uint256\"},{\"internalType\":\"uint256\",\"name\":\"duration\",\"type\":\"uint256\"},{\"internalType\":\"uint256\",\"name\":\"distance\",\"type\":\"uint256\"}],\"stateMutability\":\"view\",\"type\":\"function\"},{\"inputs\":[{\"internalType\":\"uint256\",\"name\":\"_memberId\",\"type\":\"uint256\"},{\"internalType\":\"uint256\",\"name\":\"_date\",\"type\":\"uint256\"}],\"name\":\"getExerciseDataByDate\",\"outputs\":[{\"components\":[{\"internalType\":\"uint256\",\"name\":\"steps\",\"type\":\"uint256\"},{\"internalType\":\"uint256\",\"name\":\"duration\",\"type\":\"uint256\"},{\"internalType\":\"uint256\",\"name\":\"distance\",\"type\":\"uint256\"}],\"internalType\":\"struct FitnessTracker.ExerciseData\",\"name\":\"\",\"type\":\"tuple\"}],\"stateMutability\":\"view\",\"type\":\"function\"}]);\nvar fitnesstracker = fitnesstrackerContract.deploy({\n     data: '0x6080604052348015600e575f80fd5b506104248061001c5f395ff3fe608060405234801561000f575f80fd5b506004361061003f575f3560e01c8063a4ddb4a414610043578063d3e3774514610075578063d8286a1014610091575b5f80fd5b61005d6004803603810190610058919061023c565b6100c1565b60405161006c93929190610289565b60405180910390f35b61008f600480360381019061008a91906102be565b6100f1565b005b6100ab60048036038101906100a6919061023c565b610190565b6040516100b89190610384565b60405180910390f35b5f602052815f5260405f20602052805f5260405f205f9150915050805f0154908060010154908060020154905083565b6040518060600160405280848152602001838152602001828152505f808781526020019081526020015f205f8681526020019081526020015f205f820151815f015560208201518160010155604082015181600201559050507fe920c436c1f1b04eec68b8cdeb48d96c4d5d95f3cc10d4fd0a21978585c23e09858585858560405161018195949392919061039d565b60405180910390a15050505050565b6101986101e7565b5f808481526020019081526020015f205f8381526020019081526020015f206040518060600160405290815f820154815260200160018201548152602001600282015481525050905092915050565b60405180606001604052805f81526020015f81526020015f81525090565b5f80fd5b5f819050919050565b61021b81610209565b8114610225575f80fd5b50565b5f8135905061023681610212565b92915050565b5f806040838503121561025257610251610205565b5b5f61025f85828601610228565b925050602061027085828601610228565b9150509250929050565b61028381610209565b82525050565b5f60608201905061029c5f83018661027a565b6102a9602083018561027a565b6102b6604083018461027a565b949350505050565b5f805f805f60a086880312156102d7576102d6610205565b5b5f6102e488828901610228565b95505060206102f588828901610228565b945050604061030688828901610228565b935050606061031788828901610228565b925050608061032888828901610228565b9150509295509295909350565b61033e81610209565b82525050565b606082015f8201516103585f850182610335565b50602082015161036b6020850182610335565b50604082015161037e6040850182610335565b50505050565b5f6060820190506103975f830184610344565b92915050565b5f60a0820190506103b05f83018861027a565b6103bd602083018761027a565b6103ca604083018661027a565b6103d7606083018561027a565b6103e4608083018461027a565b969550505050505056fea2646970667358221220688b924ab9905a7ed880c12071cfba2c606be00a12f432077bba717d3f1e188064736f6c63430008190033', \n     arguments: [\n     ]\n}).send({\n     from: web3.eth.accounts[0], \n     gas: '4700000'\n   }, function (e, contract){\n    console.log(e, contract);\n    if (typeof contract.address !== 'undefined') {\n         console.log('Contract mined! address: ' + contract.address + ' transactionHash: ' + contract.transactionHash);\n    }\n })",
	"functionHashes": {
		"d3e37745": "addExerciseData(uint256,uint256,uint256,uint256,uint256)",
		"a4ddb4a4": "exerciseRecords(uint256,uint256)",
		"d8286a10": "getExerciseDataByDate(uint256,uint256)"
	},
	"gasEstimates": {
		"Creation": {
			"codeDepositCost": "212000",
			"executionCost": "255",
			"totalCost": "212255"
		},
		"External": {
			"addExerciseData(uint256,uint256,uint256,uint256,uint256)": "infinite",
			"exerciseRecords(uint256,uint256)": "infinite",
			"getExerciseDataByDate(uint256,uint256)": "infinite"
		}
	},
	"devdoc": {
		"kind": "dev",
		"methods": {},
		"version": 1
	},
	"userdoc": {
		"kind": "user",
		"methods": {},
		"version": 1
	},
	"Runtime Bytecode": {
		"immutableReferences": {},
		"linkReferences": {},
		"object": "608060405234801561000f575f80fd5b506004361061003f575f3560e01c8063a4ddb4a414610043578063d3e3774514610075578063d8286a1014610091575b5f80fd5b61005d6004803603810190610058919061023c565b6100c1565b60405161006c93929190610289565b60405180910390f35b61008f600480360381019061008a91906102be565b6100f1565b005b6100ab60048036038101906100a6919061023c565b610190565b6040516100b89190610384565b60405180910390f35b5f602052815f5260405f20602052805f5260405f205f9150915050805f0154908060010154908060020154905083565b6040518060600160405280848152602001838152602001828152505f808781526020019081526020015f205f8681526020019081526020015f205f820151815f015560208201518160010155604082015181600201559050507fe920c436c1f1b04eec68b8cdeb48d96c4d5d95f3cc10d4fd0a21978585c23e09858585858560405161018195949392919061039d565b60405180910390a15050505050565b6101986101e7565b5f808481526020019081526020015f205f8381526020019081526020015f206040518060600160405290815f820154815260200160018201548152602001600282015481525050905092915050565b60405180606001604052805f81526020015f81526020015f81525090565b5f80fd5b5f819050919050565b61021b81610209565b8114610225575f80fd5b50565b5f8135905061023681610212565b92915050565b5f806040838503121561025257610251610205565b5b5f61025f85828601610228565b925050602061027085828601610228565b9150509250929050565b61028381610209565b82525050565b5f60608201905061029c5f83018661027a565b6102a9602083018561027a565b6102b6604083018461027a565b949350505050565b5f805f805f60a086880312156102d7576102d6610205565b5b5f6102e488828901610228565b95505060206102f588828901610228565b945050604061030688828901610228565b935050606061031788828901610228565b925050608061032888828901610228565b9150509295509295909350565b61033e81610209565b82525050565b606082015f8201516103585f850182610335565b50602082015161036b6020850182610335565b50604082015161037e6040850182610335565b50505050565b5f6060820190506103975f830184610344565b92915050565b5f60a0820190506103b05f83018861027a565b6103bd602083018761027a565b6103ca604083018661027a565b6103d7606083018561027a565b6103e4608083018461027a565b969550505050505056fea2646970667358221220688b924ab9905a7ed880c12071cfba2c606be00a12f432077bba717d3f1e188064736f6c63430008190033",
		"opcodes": "PUSH1 0x80 PUSH1 0x40 MSTORE CALLVALUE DUP1 ISZERO PUSH2 0xF JUMPI PUSH0 DUP1 REVERT JUMPDEST POP PUSH1 0x4 CALLDATASIZE LT PUSH2 0x3F JUMPI PUSH0 CALLDATALOAD PUSH1 0xE0 SHR DUP1 PUSH4 0xA4DDB4A4 EQ PUSH2 0x43 JUMPI DUP1 PUSH4 0xD3E37745 EQ PUSH2 0x75 JUMPI DUP1 PUSH4 0xD8286A10 EQ PUSH2 0x91 JUMPI JUMPDEST PUSH0 DUP1 REVERT JUMPDEST PUSH2 0x5D PUSH1 0x4 DUP1 CALLDATASIZE SUB DUP2 ADD SWAP1 PUSH2 0x58 SWAP2 SWAP1 PUSH2 0x23C JUMP JUMPDEST PUSH2 0xC1 JUMP JUMPDEST PUSH1 0x40 MLOAD PUSH2 0x6C SWAP4 SWAP3 SWAP2 SWAP1 PUSH2 0x289 JUMP JUMPDEST PUSH1 0x40 MLOAD DUP1 SWAP2 SUB SWAP1 RETURN JUMPDEST PUSH2 0x8F PUSH1 0x4 DUP1 CALLDATASIZE SUB DUP2 ADD SWAP1 PUSH2 0x8A SWAP2 SWAP1 PUSH2 0x2BE JUMP JUMPDEST PUSH2 0xF1 JUMP JUMPDEST STOP JUMPDEST PUSH2 0xAB PUSH1 0x4 DUP1 CALLDATASIZE SUB DUP2 ADD SWAP1 PUSH2 0xA6 SWAP2 SWAP1 PUSH2 0x23C JUMP JUMPDEST PUSH2 0x190 JUMP JUMPDEST PUSH1 0x40 MLOAD PUSH2 0xB8 SWAP2 SWAP1 PUSH2 0x384 JUMP JUMPDEST PUSH1 0x40 MLOAD DUP1 SWAP2 SUB SWAP1 RETURN JUMPDEST PUSH0 PUSH1 0x20 MSTORE DUP2 PUSH0 MSTORE PUSH1 0x40 PUSH0 KECCAK256 PUSH1 0x20 MSTORE DUP1 PUSH0 MSTORE PUSH1 0x40 PUSH0 KECCAK256 PUSH0 SWAP2 POP SWAP2 POP POP DUP1 PUSH0 ADD SLOAD SWAP1 DUP1 PUSH1 0x1 ADD SLOAD SWAP1 DUP1 PUSH1 0x2 ADD SLOAD SWAP1 POP DUP4 JUMP JUMPDEST PUSH1 0x40 MLOAD DUP1 PUSH1 0x60 ADD PUSH1 0x40 MSTORE DUP1 DUP5 DUP2 MSTORE PUSH1 0x20 ADD DUP4 DUP2 MSTORE PUSH1 0x20 ADD DUP3 DUP2 MSTORE POP PUSH0 DUP1 DUP8 DUP2 MSTORE PUSH1 0x20 ADD SWAP1 DUP2 MSTORE PUSH1 0x20 ADD PUSH0 KECCAK256 PUSH0 DUP7 DUP2 MSTORE PUSH1 0x20 ADD SWAP1 DUP2 MSTORE PUSH1 0x20 ADD PUSH0 KECCAK256 PUSH0 DUP3 ADD MLOAD DUP2 PUSH0 ADD SSTORE PUSH1 0x20 DUP3 ADD MLOAD DUP2 PUSH1 0x1 ADD SSTORE PUSH1 0x40 DUP3 ADD MLOAD DUP2 PUSH1 0x2 ADD SSTORE SWAP1 POP POP PUSH32 0xE920C436C1F1B04EEC68B8CDEB48D96C4D5D95F3CC10D4FD0A21978585C23E09 DUP6 DUP6 DUP6 DUP6 DUP6 PUSH1 0x40 MLOAD PUSH2 0x181 SWAP6 SWAP5 SWAP4 SWAP3 SWAP2 SWAP1 PUSH2 0x39D JUMP JUMPDEST PUSH1 0x40 MLOAD DUP1 SWAP2 SUB SWAP1 LOG1 POP POP POP POP POP JUMP JUMPDEST PUSH2 0x198 PUSH2 0x1E7 JUMP JUMPDEST PUSH0 DUP1 DUP5 DUP2 MSTORE PUSH1 0x20 ADD SWAP1 DUP2 MSTORE PUSH1 0x20 ADD PUSH0 KECCAK256 PUSH0 DUP4 DUP2 MSTORE PUSH1 0x20 ADD SWAP1 DUP2 MSTORE PUSH1 0x20 ADD PUSH0 KECCAK256 PUSH1 0x40 MLOAD DUP1 PUSH1 0x60 ADD PUSH1 0x40 MSTORE SWAP1 DUP2 PUSH0 DUP3 ADD SLOAD DUP2 MSTORE PUSH1 0x20 ADD PUSH1 0x1 DUP3 ADD SLOAD DUP2 MSTORE PUSH1 0x20 ADD PUSH1 0x2 DUP3 ADD SLOAD DUP2 MSTORE POP POP SWAP1 POP SWAP3 SWAP2 POP POP JUMP JUMPDEST PUSH1 0x40 MLOAD DUP1 PUSH1 0x60 ADD PUSH1 0x40 MSTORE DUP1 PUSH0 DUP2 MSTORE PUSH1 0x20 ADD PUSH0 DUP2 MSTORE PUSH1 0x20 ADD PUSH0 DUP2 MSTORE POP SWAP1 JUMP JUMPDEST PUSH0 DUP1 REVERT JUMPDEST PUSH0 DUP2 SWAP1 POP SWAP2 SWAP1 POP JUMP JUMPDEST PUSH2 0x21B DUP2 PUSH2 0x209 JUMP JUMPDEST DUP2 EQ PUSH2 0x225 JUMPI PUSH0 DUP1 REVERT JUMPDEST POP JUMP JUMPDEST PUSH0 DUP2 CALLDATALOAD SWAP1 POP PUSH2 0x236 DUP2 PUSH2 0x212 JUMP JUMPDEST SWAP3 SWAP2 POP POP JUMP JUMPDEST PUSH0 DUP1 PUSH1 0x40 DUP4 DUP6 SUB SLT ISZERO PUSH2 0x252 JUMPI PUSH2 0x251 PUSH2 0x205 JUMP JUMPDEST JUMPDEST PUSH0 PUSH2 0x25F DUP6 DUP3 DUP7 ADD PUSH2 0x228 JUMP JUMPDEST SWAP3 POP POP PUSH1 0x20 PUSH2 0x270 DUP6 DUP3 DUP7 ADD PUSH2 0x228 JUMP JUMPDEST SWAP2 POP POP SWAP3 POP SWAP3 SWAP1 POP JUMP JUMPDEST PUSH2 0x283 DUP2 PUSH2 0x209 JUMP JUMPDEST DUP3 MSTORE POP POP JUMP JUMPDEST PUSH0 PUSH1 0x60 DUP3 ADD SWAP1 POP PUSH2 0x29C PUSH0 DUP4 ADD DUP7 PUSH2 0x27A JUMP JUMPDEST PUSH2 0x2A9 PUSH1 0x20 DUP4 ADD DUP6 PUSH2 0x27A JUMP JUMPDEST PUSH2 0x2B6 PUSH1 0x40 DUP4 ADD DUP5 PUSH2 0x27A JUMP JUMPDEST SWAP5 SWAP4 POP POP POP POP JUMP JUMPDEST PUSH0 DUP1 PUSH0 DUP1 PUSH0 PUSH1 0xA0 DUP7 DUP9 SUB SLT ISZERO PUSH2 0x2D7 JUMPI PUSH2 0x2D6 PUSH2 0x205 JUMP JUMPDEST JUMPDEST PUSH0 PUSH2 0x2E4 DUP9 DUP3 DUP10 ADD PUSH2 0x228 JUMP JUMPDEST SWAP6 POP POP PUSH1 0x20 PUSH2 0x2F5 DUP9 DUP3 DUP10 ADD PUSH2 0x228 JUMP JUMPDEST SWAP5 POP POP PUSH1 0x40 PUSH2 0x306 DUP9 DUP3 DUP10 ADD PUSH2 0x228 JUMP JUMPDEST SWAP4 POP POP PUSH1 0x60 PUSH2 0x317 DUP9 DUP3 DUP10 ADD PUSH2 0x228 JUMP JUMPDEST SWAP3 POP POP PUSH1 0x80 PUSH2 0x328 DUP9 DUP3 DUP10 ADD PUSH2 0x228 JUMP JUMPDEST SWAP2 POP POP SWAP3 SWAP6 POP SWAP3 SWAP6 SWAP1 SWAP4 POP JUMP JUMPDEST PUSH2 0x33E DUP2 PUSH2 0x209 JUMP JUMPDEST DUP3 MSTORE POP POP JUMP JUMPDEST PUSH1 0x60 DUP3 ADD PUSH0 DUP3 ADD MLOAD PUSH2 0x358 PUSH0 DUP6 ADD DUP3 PUSH2 0x335 JUMP JUMPDEST POP PUSH1 0x20 DUP3 ADD MLOAD PUSH2 0x36B PUSH1 0x20 DUP6 ADD DUP3 PUSH2 0x335 JUMP JUMPDEST POP PUSH1 0x40 DUP3 ADD MLOAD PUSH2 0x37E PUSH1 0x40 DUP6 ADD DUP3 PUSH2 0x335 JUMP JUMPDEST POP POP POP POP JUMP JUMPDEST PUSH0 PUSH1 0x60 DUP3 ADD SWAP1 POP PUSH2 0x397 PUSH0 DUP4 ADD DUP5 PUSH2 0x344 JUMP JUMPDEST SWAP3 SWAP2 POP POP JUMP JUMPDEST PUSH0 PUSH1 0xA0 DUP3 ADD SWAP1 POP PUSH2 0x3B0 PUSH0 DUP4 ADD DUP9 PUSH2 0x27A JUMP JUMPDEST PUSH2 0x3BD PUSH1 0x20 DUP4 ADD DUP8 PUSH2 0x27A JUMP JUMPDEST PUSH2 0x3CA PUSH1 0x40 DUP4 ADD DUP7 PUSH2 0x27A JUMP JUMPDEST PUSH2 0x3D7 PUSH1 0x60 DUP4 ADD DUP6 PUSH2 0x27A JUMP JUMPDEST PUSH2 0x3E4 PUSH1 0x80 DUP4 ADD DUP5 PUSH2 0x27A JUMP JUMPDEST SWAP7 SWAP6 POP POP POP POP POP POP JUMP INVALID LOG2 PUSH5 0x6970667358 0x22 SLT KECCAK256 PUSH9 0x8B924AB9905A7ED880 0xC1 KECCAK256 PUSH18 0xCFBA2C606BE00A12F432077BBA717D3F1E18 DUP1 PUSH5 0x736F6C6343 STOP ADDMOD NOT STOP CALLER "
	},
	"Assembly": ".code\n  PUSH 80\t\t\tcontract FitnessTracker {\\r\\n ...\n  PUSH 40\t\t\tcontract FitnessTracker {\\r\\n ...\n  MSTORE \t\t\tcontract FitnessTracker {\\r\\n ...\n  CALLVALUE \t\t\tcontract FitnessTracker {\\r\\n ...\n  DUP1 \t\t\tcontract FitnessTracker {\\r\\n ...\n  ISZERO \t\t\tcontract FitnessTracker {\\r\\n ...\n  PUSH [tag] 1\t\t\tcontract FitnessTracker {\\r\\n ...\n  JUMPI \t\t\tcontract FitnessTracker {\\r\\n ...\n  PUSH 0\t\t\tcontract FitnessTracker {\\r\\n ...\n  DUP1 \t\t\tcontract FitnessTracker {\\r\\n ...\n  REVERT \t\t\tcontract FitnessTracker {\\r\\n ...\ntag 1\t\t\tcontract FitnessTracker {\\r\\n ...\n  JUMPDEST \t\t\tcontract FitnessTracker {\\r\\n ...\n  POP \t\t\tcontract FitnessTracker {\\r\\n ...\n  PUSH #[$] 0000000000000000000000000000000000000000000000000000000000000000\t\t\tcontract FitnessTracker {\\r\\n ...\n  DUP1 \t\t\tcontract FitnessTracker {\\r\\n ...\n  PUSH [$] 0000000000000000000000000000000000000000000000000000000000000000\t\t\tcontract FitnessTracker {\\r\\n ...\n  PUSH 0\t\t\tcontract FitnessTracker {\\r\\n ...\n  CODECOPY \t\t\tcontract FitnessTracker {\\r\\n ...\n  PUSH 0\t\t\tcontract FitnessTracker {\\r\\n ...\n  RETURN \t\t\tcontract FitnessTracker {\\r\\n ...\n.data\n  0:\n    .code\n      PUSH 80\t\t\tcontract FitnessTracker {\\r\\n ...\n      PUSH 40\t\t\tcontract FitnessTracker {\\r\\n ...\n      MSTORE \t\t\tcontract FitnessTracker {\\r\\n ...\n      CALLVALUE \t\t\tcontract FitnessTracker {\\r\\n ...\n      DUP1 \t\t\tcontract FitnessTracker {\\r\\n ...\n      ISZERO \t\t\tcontract FitnessTracker {\\r\\n ...\n      PUSH [tag] 1\t\t\tcontract FitnessTracker {\\r\\n ...\n      JUMPI \t\t\tcontract FitnessTracker {\\r\\n ...\n      PUSH 0\t\t\tcontract FitnessTracker {\\r\\n ...\n      DUP1 \t\t\tcontract FitnessTracker {\\r\\n ...\n      REVERT \t\t\tcontract FitnessTracker {\\r\\n ...\n    tag 1\t\t\tcontract FitnessTracker {\\r\\n ...\n      JUMPDEST \t\t\tcontract FitnessTracker {\\r\\n ...\n      POP \t\t\tcontract FitnessTracker {\\r\\n ...\n      PUSH 4\t\t\tcontract FitnessTracker {\\r\\n ...\n      CALLDATASIZE \t\t\tcontract FitnessTracker {\\r\\n ...\n      LT \t\t\tcontract FitnessTracker {\\r\\n ...\n      PUSH [tag] 2\t\t\tcontract FitnessTracker {\\r\\n ...\n      JUMPI \t\t\tcontract FitnessTracker {\\r\\n ...\n      PUSH 0\t\t\tcontract FitnessTracker {\\r\\n ...\n      CALLDATALOAD \t\t\tcontract FitnessTracker {\\r\\n ...\n      PUSH E0\t\t\tcontract FitnessTracker {\\r\\n ...\n      SHR \t\t\tcontract FitnessTracker {\\r\\n ...\n      DUP1 \t\t\tcontract FitnessTracker {\\r\\n ...\n      PUSH A4DDB4A4\t\t\tcontract FitnessTracker {\\r\\n ...\n      EQ \t\t\tcontract FitnessTracker {\\r\\n ...\n      PUSH [tag] 3\t\t\tcontract FitnessTracker {\\r\\n ...\n      JUMPI \t\t\tcontract FitnessTracker {\\r\\n ...\n      DUP1 \t\t\tcontract FitnessTracker {\\r\\n ...\n      PUSH D3E37745\t\t\tcontract FitnessTracker {\\r\\n ...\n      EQ \t\t\tcontract FitnessTracker {\\r\\n ...\n      PUSH [tag] 4\t\t\tcontract FitnessTracker {\\r\\n ...\n      JUMPI \t\t\tcontract FitnessTracker {\\r\\n ...\n      DUP1 \t\t\tcontract FitnessTracker {\\r\\n ...\n      PUSH D8286A10\t\t\tcontract FitnessTracker {\\r\\n ...\n      EQ \t\t\tcontract FitnessTracker {\\r\\n ...\n      PUSH [tag] 5\t\t\tcontract FitnessTracker {\\r\\n ...\n      JUMPI \t\t\tcontract FitnessTracker {\\r\\n ...\n    tag 2\t\t\tcontract FitnessTracker {\\r\\n ...\n      JUMPDEST \t\t\tcontract FitnessTracker {\\r\\n ...\n      PUSH 0\t\t\tcontract FitnessTracker {\\r\\n ...\n      DUP1 \t\t\tcontract FitnessTracker {\\r\\n ...\n      REVERT \t\t\tcontract FitnessTracker {\\r\\n ...\n    tag 3\t\t\tmapping(uint => mapping(uint =...\n      JUMPDEST \t\t\tmapping(uint => mapping(uint =...\n      PUSH [tag] 6\t\t\tmapping(uint => mapping(uint =...\n      PUSH 4\t\t\tmapping(uint => mapping(uint =...\n      DUP1 \t\t\tmapping(uint => mapping(uint =...\n      CALLDATASIZE \t\t\tmapping(uint => mapping(uint =...\n      SUB \t\t\tmapping(uint => mapping(uint =...\n      DUP2 \t\t\tmapping(uint => mapping(uint =...\n      ADD \t\t\tmapping(uint => mapping(uint =...\n      SWAP1 \t\t\tmapping(uint => mapping(uint =...\n      PUSH [tag] 7\t\t\tmapping(uint => mapping(uint =...\n      SWAP2 \t\t\tmapping(uint => mapping(uint =...\n      SWAP1 \t\t\tmapping(uint => mapping(uint =...\n      PUSH [tag] 8\t\t\tmapping(uint => mapping(uint =...\n      JUMP \t\t\tmapping(uint => mapping(uint =...\n    tag 7\t\t\tmapping(uint => mapping(uint =...\n      JUMPDEST \t\t\tmapping(uint => mapping(uint =...\n      PUSH [tag] 9\t\t\tmapping(uint => mapping(uint =...\n      JUMP \t\t\tmapping(uint => mapping(uint =...\n    tag 6\t\t\tmapping(uint => mapping(uint =...\n      JUMPDEST \t\t\tmapping(uint => mapping(uint =...\n      PUSH 40\t\t\tmapping(uint => mapping(uint =...\n      MLOAD \t\t\tmapping(uint => mapping(uint =...\n      PUSH [tag] 10\t\t\tmapping(uint => mapping(uint =...\n      SWAP4 \t\t\tmapping(uint => mapping(uint =...\n      SWAP3 \t\t\tmapping(uint => mapping(uint =...\n      SWAP2 \t\t\tmapping(uint => mapping(uint =...\n      SWAP1 \t\t\tmapping(uint => mapping(uint =...\n      PUSH [tag] 11\t\t\tmapping(uint => mapping(uint =...\n      JUMP \t\t\tmapping(uint => mapping(uint =...\n    tag 10\t\t\tmapping(uint => mapping(uint =...\n      JUMPDEST \t\t\tmapping(uint => mapping(uint =...\n      PUSH 40\t\t\tmapping(uint => mapping(uint =...\n      MLOAD \t\t\tmapping(uint => mapping(uint =...\n      DUP1 \t\t\tmapping(uint => mapping(uint =...\n      SWAP2 \t\t\tmapping(uint => mapping(uint =...\n      SUB \t\t\tmapping(uint => mapping(uint =...\n      SWAP1 \t\t\tmapping(uint => mapping(uint =...\n      RETURN \t\t\tmapping(uint => mapping(uint =...\n    tag 4\t\t\tddExerciseData(uint _memberId,...\n      JUMPDEST \t\t\tddExerciseData(uint _memberId,...\n      PUSH [tag] 12\t\t\tddExerciseData(uint _memberId,...\n      PUSH 4\t\t\tddExerciseData(uint _memberId,...\n      DUP1 \t\t\tddExerciseData(uint _memberId,...\n      CALLDATASIZE \t\t\tddExerciseData(uint _memberId,...\n      SUB \t\t\tddExerciseData(uint _memberId,...\n      DUP2 \t\t\tddExerciseData(uint _memberId,...\n      ADD \t\t\tddExerciseData(uint _memberId,...\n      SWAP1 \t\t\tddExerciseData(uint _memberId,...\n      PUSH [tag] 13\t\t\tddExerciseData(uint _memberId,...\n      SWAP2 \t\t\tddExerciseData(uint _memberId,...\n      SWAP1 \t\t\tddExerciseData(uint _memberId,...\n      PUSH [tag] 14\t\t\tddExerciseData(uint _memberId,...\n      JUMP \t\t\tddExerciseData(uint _memberId,...\n    tag 13\t\t\tddExerciseData(uint _memberId,...\n      JUMPDEST \t\t\tddExerciseData(uint _memberId,...\n      PUSH [tag] 15\t\t\tddExerciseData(uint _memberId,...\n      JUMP \t\t\tddExerciseData(uint _memberId,...\n    tag 12\t\t\tddExerciseData(uint _memberId,...\n      JUMPDEST \t\t\tddExerciseData(uint _memberId,...\n      STOP \t\t\tddExerciseData(uint _memberId,...\n    tag 5\t\t\tetExerciseDataByDate(uint _mem...\n      JUMPDEST \t\t\tetExerciseDataByDate(uint _mem...\n      PUSH [tag] 16\t\t\tetExerciseDataByDate(uint _mem...\n      PUSH 4\t\t\tetExerciseDataByDate(uint _mem...\n      DUP1 \t\t\tetExerciseDataByDate(uint _mem...\n      CALLDATASIZE \t\t\tetExerciseDataByDate(uint _mem...\n      SUB \t\t\tetExerciseDataByDate(uint _mem...\n      DUP2 \t\t\tetExerciseDataByDate(uint _mem...\n      ADD \t\t\tetExerciseDataByDate(uint _mem...\n      SWAP1 \t\t\tetExerciseDataByDate(uint _mem...\n      PUSH [tag] 17\t\t\tetExerciseDataByDate(uint _mem...\n      SWAP2 \t\t\tetExerciseDataByDate(uint _mem...\n      SWAP1 \t\t\tetExerciseDataByDate(uint _mem...\n      PUSH [tag] 8\t\t\tetExerciseDataByDate(uint _mem...\n      JUMP \t\t\tetExerciseDataByDate(uint _mem...\n    tag 17\t\t\tetExerciseDataByDate(uint _mem...\n      JUMPDEST \t\t\tetExerciseDataByDate(uint _mem...\n      PUSH [tag] 18\t\t\tetExerciseDataByDate(uint _mem...\n      JUMP \t\t\tetExerciseDataByDate(uint _mem...\n    tag 16\t\t\tetExerciseDataByDate(uint _mem...\n      JUMPDEST \t\t\tetExerciseDataByDate(uint _mem...\n      PUSH 40\t\t\tetExerciseDataByDate(uint _mem...\n      MLOAD \t\t\tetExerciseDataByDate(uint _mem...\n      PUSH [tag] 19\t\t\tetExerciseDataByDate(uint _mem...\n      SWAP2 \t\t\tetExerciseDataByDate(uint _mem...\n      SWAP1 \t\t\tetExerciseDataByDate(uint _mem...\n      PUSH [tag] 20\t\t\tetExerciseDataByDate(uint _mem...\n      JUMP \t\t\tetExerciseDataByDate(uint _mem...\n    tag 19\t\t\tetExerciseDataByDate(uint _mem...\n      JUMPDEST \t\t\tetExerciseDataByDate(uint _mem...\n      PUSH 40\t\t\tetExerciseDataByDate(uint _mem...\n      MLOAD \t\t\tetExerciseDataByDate(uint _mem...\n      DUP1 \t\t\tetExerciseDataByDate(uint _mem...\n      SWAP2 \t\t\tetExerciseDataByDate(uint _mem...\n      SUB \t\t\tetExerciseDataByDate(uint _mem...\n      SWAP1 \t\t\tetExerciseDataByDate(uint _mem...\n      RETURN \t\t\tetExerciseDataByDate(uint _mem...\n    tag 9\t\t\tmapping(uint => mapping(uint =...\n      JUMPDEST \t\t\tmapping(uint => mapping(uint =...\n      PUSH 0\t\t\tmapping(uint => mapping(uint =...\n      PUSH 20\t\t\tmapping(uint => mapping(uint =...\n      MSTORE \t\t\tmapping(uint => mapping(uint =...\n      DUP2 \t\t\tmapping(uint => mapping(uint =...\n      PUSH 0\t\t\tmapping(uint => mapping(uint =...\n      MSTORE \t\t\tmapping(uint => mapping(uint =...\n      PUSH 40\t\t\tmapping(uint => mapping(uint =...\n      PUSH 0\t\t\tmapping(uint => mapping(uint =...\n      KECCAK256 \t\t\tmapping(uint => mapping(uint =...\n      PUSH 20\t\t\tmapping(uint => mapping(uint =...\n      MSTORE \t\t\tmapping(uint => mapping(uint =...\n      DUP1 \t\t\tmapping(uint => mapping(uint =...\n      PUSH 0\t\t\tmapping(uint => mapping(uint =...\n      MSTORE \t\t\tmapping(uint => mapping(uint =...\n      PUSH 40\t\t\tmapping(uint => mapping(uint =...\n      PUSH 0\t\t\tmapping(uint => mapping(uint =...\n      KECCAK256 \t\t\tmapping(uint => mapping(uint =...\n      PUSH 0\t\t\tmapping(uint => mapping(uint =...\n      SWAP2 \t\t\tmapping(uint => mapping(uint =...\n      POP \t\t\tmapping(uint => mapping(uint =...\n      SWAP2 \t\t\tmapping(uint => mapping(uint =...\n      POP \t\t\tmapping(uint => mapping(uint =...\n      POP \t\t\tmapping(uint => mapping(uint =...\n      DUP1 \t\t\tmapping(uint => mapping(uint =...\n      PUSH 0\t\t\tmapping(uint => mapping(uint =...\n      ADD \t\t\tmapping(uint => mapping(uint =...\n      SLOAD \t\t\tmapping(uint => mapping(uint =...\n      SWAP1 \t\t\tmapping(uint => mapping(uint =...\n      DUP1 \t\t\tmapping(uint => mapping(uint =...\n      PUSH 1\t\t\tmapping(uint => mapping(uint =...\n      ADD \t\t\tmapping(uint => mapping(uint =...\n      SLOAD \t\t\tmapping(uint => mapping(uint =...\n      SWAP1 \t\t\tmapping(uint => mapping(uint =...\n      DUP1 \t\t\tmapping(uint => mapping(uint =...\n      PUSH 2\t\t\tmapping(uint => mapping(uint =...\n      ADD \t\t\tmapping(uint => mapping(uint =...\n      SLOAD \t\t\tmapping(uint => mapping(uint =...\n      SWAP1 \t\t\tmapping(uint => mapping(uint =...\n      POP \t\t\tmapping(uint => mapping(uint =...\n      DUP4 \t\t\tmapping(uint => mapping(uint =...\n      JUMP \t\t\tmapping(uint => mapping(uint =...\n    tag 15\t\t\tddExerciseData(uint _memberId,...\n      JUMPDEST \t\t\tddExerciseData(uint _memberId,...\n      PUSH 40\t\t\tta(_steps, _duration, _distanc...\n      MLOAD \t\t\tta(_steps, _duration, _distanc...\n      DUP1 \t\t\tta(_steps, _duration, _distanc...\n      PUSH 60\t\t\tta(_steps, _duration, _distanc...\n      ADD \t\t\tta(_steps, _duration, _distanc...\n      PUSH 40\t\t\tta(_steps, _duration, _distanc...\n      MSTORE \t\t\tta(_steps, _duration, _distanc...\n      DUP1 \t\t\tta(_steps, _duration, _distanc...\n      DUP5 \t\t\turatio\n      DUP2 \t\t\tta(_steps, _duration, _distanc...\n      MSTORE \t\t\tta(_steps, _duration, _distanc...\n      PUSH 20\t\t\tta(_steps, _duration, _distanc...\n      ADD \t\t\tta(_steps, _duration, _distanc...\n      DUP4 \t\t\t _distanc\n      DUP2 \t\t\tta(_steps, _duration, _distanc...\n      MSTORE \t\t\tta(_steps, _duration, _distanc...\n      PUSH 20\t\t\tta(_steps, _duration, _distanc...\n      ADD \t\t\tta(_steps, _duration, _distanc...\n      DUP3 \t\t\t;\\r\\n      \n      DUP2 \t\t\tta(_steps, _duration, _distanc...\n      MSTORE \t\t\tta(_steps, _duration, _distanc...\n      POP \t\t\tta(_steps, _duration, _distanc...\n      PUSH 0\t\t\tcords[_memberId\n      DUP1 \t\t\tcords[_memberId][_date] = \n      DUP8 \t\t\t[_date] =\n      DUP2 \t\t\tcords[_memberId][_date] = \n      MSTORE \t\t\tcords[_memberId][_date] = \n      PUSH 20\t\t\tcords[_memberId][_date] = \n      ADD \t\t\tcords[_memberId][_date] = \n      SWAP1 \t\t\tcords[_memberId][_date] = \n      DUP2 \t\t\tcords[_memberId][_date] = \n      MSTORE \t\t\tcords[_memberId][_date] = \n      PUSH 20\t\t\tcords[_memberId][_date] = \n      ADD \t\t\tcords[_memberId][_date] = \n      PUSH 0\t\t\tcords[_memberId][_date] = \n      KECCAK256 \t\t\tcords[_memberId][_date] = \n      PUSH 0\t\t\tcords[_memberId][_date] = Exer...\n      DUP7 \t\t\txerci\n      DUP2 \t\t\tcords[_memberId][_date] = Exer...\n      MSTORE \t\t\tcords[_memberId][_date] = Exer...\n      PUSH 20\t\t\tcords[_memberId][_date] = Exer...\n      ADD \t\t\tcords[_memberId][_date] = Exer...\n      SWAP1 \t\t\tcords[_memberId][_date] = Exer...\n      DUP2 \t\t\tcords[_memberId][_date] = Exer...\n      MSTORE \t\t\tcords[_memberId][_date] = Exer...\n      PUSH 20\t\t\tcords[_memberId][_date] = Exer...\n      ADD \t\t\tcords[_memberId][_date] = Exer...\n      PUSH 0\t\t\tcords[_memberId][_date] = Exer...\n      KECCAK256 \t\t\tcords[_memberId][_date] = Exer...\n      PUSH 0\t\t\tcords[_memberId][_date] = Exer...\n      DUP3 \t\t\tcords[_memberId][_date] = Exer...\n      ADD \t\t\tcords[_memberId][_date] = Exer...\n      MLOAD \t\t\tcords[_memberId][_date] = Exer...\n      DUP2 \t\t\tcords[_memberId][_date] = Exer...\n      PUSH 0\t\t\tcords[_memberId][_date] = Exer...\n      ADD \t\t\tcords[_memberId][_date] = Exer...\n      SSTORE \t\t\tcords[_memberId][_date] = Exer...\n      PUSH 20\t\t\tcords[_memberId][_date] = Exer...\n      DUP3 \t\t\tcords[_memberId][_date] = Exer...\n      ADD \t\t\tcords[_memberId][_date] = Exer...\n      MLOAD \t\t\tcords[_memberId][_date] = Exer...\n      DUP2 \t\t\tcords[_memberId][_date] = Exer...\n      PUSH 1\t\t\tcords[_memberId][_date] = Exer...\n      ADD \t\t\tcords[_memberId][_date] = Exer...\n      SSTORE \t\t\tcords[_memberId][_date] = Exer...\n      PUSH 40\t\t\tcords[_memberId][_date] = Exer...\n      DUP3 \t\t\tcords[_memberId][_date] = Exer...\n      ADD \t\t\tcords[_memberId][_date] = Exer...\n      MLOAD \t\t\tcords[_memberId][_date] = Exer...\n      DUP2 \t\t\tcords[_memberId][_date] = Exer...\n      PUSH 2\t\t\tcords[_memberId][_date] = Exer...\n      ADD \t\t\tcords[_memberId][_date] = Exer...\n      SSTORE \t\t\tcords[_memberId][_date] = Exer...\n      SWAP1 \t\t\tcords[_memberId][_date] = Exer...\n      POP \t\t\tcords[_memberId][_date] = Exer...\n      POP \t\t\tcords[_memberId][_date] = Exer...\n      PUSH E920C436C1F1B04EEC68B8CDEB48D96C4D5D95F3CC10D4FD0A21978585C23E09\t\t\ttaAdded(_memberId, _date, _ste...\n      DUP6 \t\t\t _date, _\n      DUP6 \t\t\teps, \n      DUP6 \t\t\turatio\n      DUP6 \t\t\t _distanc\n      DUP6 \t\t\t;\\r\\n    }\\r\n      PUSH 40\t\t\ttaAdded(_memberId, _date, _ste...\n      MLOAD \t\t\ttaAdded(_memberId, _date, _ste...\n      PUSH [tag] 22\t\t\ttaAdded(_memberId, _date, _ste...\n      SWAP6 \t\t\ttaAdded(_memberId, _date, _ste...\n      SWAP5 \t\t\ttaAdded(_memberId, _date, _ste...\n      SWAP4 \t\t\ttaAdded(_memberId, _date, _ste...\n      SWAP3 \t\t\ttaAdded(_memberId, _date, _ste...\n      SWAP2 \t\t\ttaAdded(_memberId, _date, _ste...\n      SWAP1 \t\t\ttaAdded(_memberId, _date, _ste...\n      PUSH [tag] 23\t\t\ttaAdded(_memberId, _date, _ste...\n      JUMP \t\t\ttaAdded(_memberId, _date, _ste...\n    tag 22\t\t\ttaAdded(_memberId, _date, _ste...\n      JUMPDEST \t\t\ttaAdded(_memberId, _date, _ste...\n      PUSH 40\t\t\ttaAdded(_memberId, _date, _ste...\n      MLOAD \t\t\ttaAdded(_memberId, _date, _ste...\n      DUP1 \t\t\ttaAdded(_memberId, _date, _ste...\n      SWAP2 \t\t\ttaAdded(_memberId, _date, _ste...\n      SUB \t\t\ttaAdded(_memberId, _date, _ste...\n      SWAP1 \t\t\ttaAdded(_memberId, _date, _ste...\n      LOG1 \t\t\ttaAdded(_memberId, _date, _ste...\n      POP \t\t\tddExerciseData(uint _memberId,...\n      POP \t\t\tddExerciseData(uint _memberId,...\n      POP \t\t\tddExerciseData(uint _memberId,...\n      POP \t\t\tddExerciseData(uint _memberId,...\n      POP \t\t\tddExerciseData(uint _memberId,...\n      JUMP \t\t\tddExerciseData(uint _memberId,...\n    tag 18\t\t\tetExerciseDataByDate(uint _mem...\n      JUMPDEST \t\t\tetExerciseDataByDate(uint _mem...\n      PUSH [tag] 24\t\t\tta memory) {\\r\\n     \n      PUSH [tag] 25\t\t\tta memory) {\\r\\n     \n      JUMP \t\t\tta memory) {\\r\\n     \n    tag 24\t\t\tta memory) {\\r\\n     \n      JUMPDEST \t\t\tta memory) {\\r\\n     \n      PUSH 0\t\t\tcords[_memberId\n      DUP1 \t\t\tcords[_memberId][_date];\\r\\n\n      DUP5 \t\t\t[_date];\\r\n      DUP2 \t\t\tcords[_memberId][_date];\\r\\n\n      MSTORE \t\t\tcords[_memberId][_date];\\r\\n\n      PUSH 20\t\t\tcords[_memberId][_date];\\r\\n\n      ADD \t\t\tcords[_memberId][_date];\\r\\n\n      SWAP1 \t\t\tcords[_memberId][_date];\\r\\n\n      DUP2 \t\t\tcords[_memberId][_date];\\r\\n\n      MSTORE \t\t\tcords[_memberId][_date];\\r\\n\n      PUSH 20\t\t\tcords[_memberId][_date];\\r\\n\n      ADD \t\t\tcords[_memberId][_date];\\r\\n\n      PUSH 0\t\t\tcords[_memberId][_date];\\r\\n\n      KECCAK256 \t\t\tcords[_memberId][_date];\\r\\n\n      PUSH 0\t\t\tcords[_memberId][_date];\\r\\n  ...\n      DUP4 \t\t\t   }\\r\n      DUP2 \t\t\tcords[_memberId][_date];\\r\\n  ...\n      MSTORE \t\t\tcords[_memberId][_date];\\r\\n  ...\n      PUSH 20\t\t\tcords[_memberId][_date];\\r\\n  ...\n      ADD \t\t\tcords[_memberId][_date];\\r\\n  ...\n      SWAP1 \t\t\tcords[_memberId][_date];\\r\\n  ...\n      DUP2 \t\t\tcords[_memberId][_date];\\r\\n  ...\n      MSTORE \t\t\tcords[_memberId][_date];\\r\\n  ...\n      PUSH 20\t\t\tcords[_memberId][_date];\\r\\n  ...\n      ADD \t\t\tcords[_memberId][_date];\\r\\n  ...\n      PUSH 0\t\t\tcords[_memberId][_date];\\r\\n  ...\n      KECCAK256 \t\t\tcords[_memberId][_date];\\r\\n  ...\n      PUSH 40\t\t\trciseRecords[_memberId][_date]...\n      MLOAD \t\t\trciseRecords[_memberId][_date]...\n      DUP1 \t\t\trciseRecords[_memberId][_date]...\n      PUSH 60\t\t\trciseRecords[_memberId][_date]...\n      ADD \t\t\trciseRecords[_memberId][_date]...\n      PUSH 40\t\t\trciseRecords[_memberId][_date]...\n      MSTORE \t\t\trciseRecords[_memberId][_date]...\n      SWAP1 \t\t\trciseRecords[_memberId][_date]...\n      DUP2 \t\t\trciseRecords[_memberId][_date]...\n      PUSH 0\t\t\trciseRecords[_memberId][_date]...\n      DUP3 \t\t\trciseRecords[_memberId][_date]...\n      ADD \t\t\trciseRecords[_memberId][_date]...\n      SLOAD \t\t\trciseRecords[_memberId][_date]...\n      DUP2 \t\t\trciseRecords[_memberId][_date]...\n      MSTORE \t\t\trciseRecords[_memberId][_date]...\n      PUSH 20\t\t\trciseRecords[_memberId][_date]...\n      ADD \t\t\trciseRecords[_memberId][_date]...\n      PUSH 1\t\t\trciseRecords[_memberId][_date]...\n      DUP3 \t\t\trciseRecords[_memberId][_date]...\n      ADD \t\t\trciseRecords[_memberId][_date]...\n      SLOAD \t\t\trciseRecords[_memberId][_date]...\n      DUP2 \t\t\trciseRecords[_memberId][_date]...\n      MSTORE \t\t\trciseRecords[_memberId][_date]...\n      PUSH 20\t\t\trciseRecords[_memberId][_date]...\n      ADD \t\t\trciseRecords[_memberId][_date]...\n      PUSH 2\t\t\trciseRecords[_memberId][_date]...\n      DUP3 \t\t\trciseRecords[_memberId][_date]...\n      ADD \t\t\trciseRecords[_memberId][_date]...\n      SLOAD \t\t\trciseRecords[_memberId][_date]...\n      DUP2 \t\t\trciseRecords[_memberId][_date]...\n      MSTORE \t\t\trciseRecords[_memberId][_date]...\n      POP \t\t\trciseRecords[_memberId][_date]...\n      POP \t\t\trciseRecords[_memberId][_date]...\n      SWAP1 \t\t\trciseRecords[_memberId][_date]...\n      POP \t\t\trciseRecords[_memberId][_date]...\n      SWAP3 \t\t\tetExerciseDataByDate(uint _mem...\n      SWAP2 \t\t\tetExerciseDataByDate(uint _mem...\n      POP \t\t\tetExerciseDataByDate(uint _mem...\n      POP \t\t\tetExerciseDataByDate(uint _mem...\n      JUMP \t\t\tetExerciseDataByDate(uint _mem...\n    tag 25\t\t\t\n      JUMPDEST \t\t\t\n      PUSH 40\t\t\t\n      MLOAD \t\t\t\n      DUP1 \t\t\t\n      PUSH 60\t\t\t\n      ADD \t\t\t\n      PUSH 40\t\t\t\n      MSTORE \t\t\t\n      DUP1 \t\t\t\n      PUSH 0\t\t\t\n      DUP2 \t\t\t\n      MSTORE \t\t\t\n      PUSH 20\t\t\t\n      ADD \t\t\t\n      PUSH 0\t\t\t\n      DUP2 \t\t\t\n      MSTORE \t\t\t\n      PUSH 20\t\t\t\n      ADD \t\t\t\n      PUSH 0\t\t\t\n      DUP2 \t\t\t\n      MSTORE \t\t\t\n      POP \t\t\t\n      SWAP1 \t\t\t\n      JUMP \t\t\t\n    tag 28\t\t\tcker {\\r\\n    struct ExerciseD...\n      JUMPDEST \t\t\tcker {\\r\\n    struct ExerciseD...\n      PUSH 0\t\t\t\\r\n      DUP1 \t\t\t \n      REVERT \t\t\tce;\\r\\n    }\\r\\n\n    tag 30\t\t\tg(uint => mapping(uint => Exer...\n      JUMPDEST \t\t\tg(uint => mapping(uint => Exer...\n      PUSH 0\t\t\ta)) pub\n      DUP2 \t\t\t    /\n      SWAP1 \t\t\teRecords;\\r\\n    /\n      POP \t\t\teRecords;\\r\\n    /\n      SWAP2 \t\t\tg(uint => mapping(uint => Exer...\n      SWAP1 \t\t\tg(uint => mapping(uint => Exer...\n      POP \t\t\tg(uint => mapping(uint => Exer...\n      JUMP \t\t\tg(uint => mapping(uint => Exer...\n    tag 31\t\t\tnt => uint) public balances;\\r...\n      JUMPDEST \t\t\tnt => uint) public balances;\\r...\n      PUSH [tag] 42\t\t\t// 이벤트 정의\\r\\n    event Exe\n      DUP2 \t\t\tnt Ex\n      PUSH [tag] 30\t\t\t// 이벤트 정의\\r\\n    event Exe\n      JUMP \t\t\t// 이벤트 정의\\r\\n    event Exe\n    tag 42\t\t\t// 이벤트 정의\\r\\n    event Exe\n      JUMPDEST \t\t\t// 이벤트 정의\\r\\n    event Exe\n      DUP2 \t\t\t\\n\\r\\n  \n      EQ \t\t\ts;\\r\\n\\r\\n    // 이벤트 정의\\r\\n   ...\n      PUSH [tag] 43\t\t\tc transfers;\\r\\n\\r\\n    // 이벤트...\n      JUMPI \t\t\tc transfers;\\r\\n\\r\\n    // 이벤트...\n      PUSH 0\t\t\tu\n      DUP1 \t\t\te\n      REVERT \t\t\tDataAdded(ui\n    tag 43\t\t\tc transfers;\\r\\n\\r\\n    // 이벤트...\n      JUMPDEST \t\t\tc transfers;\\r\\n\\r\\n    // 이벤트...\n      POP \t\t\tnt => uint) public balances;\\r...\n      JUMP \t\t\tnt => uint) public balances;\\r...\n    tag 32\t\t\tint date, uint steps, uint dur...\n      JUMPDEST \t\t\tint date, uint steps, uint dur...\n      PUSH 0\t\t\tance)\n      DUP2 \t\t\t(uint \n      CALLDATALOAD \t\t\tdExerciseData(uint _\n      SWAP1 \t\t\tnction addExerciseData(uint _\n      POP \t\t\tnction addExerciseData(uint _\n      PUSH [tag] 45\t\t\t uint _date, uint _steps, uint...\n      DUP2 \t\t\tint _\n      PUSH [tag] 31\t\t\t uint _date, uint _steps, uint...\n      JUMP \t\t\t uint _date, uint _steps, uint...\n    tag 45\t\t\t uint _date, uint _steps, uint...\n      JUMPDEST \t\t\t uint _date, uint _steps, uint...\n      SWAP3 \t\t\tint date, uint steps, uint dur...\n      SWAP2 \t\t\tint date, uint steps, uint dur...\n      POP \t\t\tint date, uint steps, uint dur...\n      POP \t\t\tint date, uint steps, uint dur...\n      JUMP \t\t\tint date, uint steps, uint dur...\n    tag 8\t\t\tt _distance) public {\\r\\n     ...\n      JUMPDEST \t\t\tt _distance) public {\\r\\n     ...\n      PUSH 0\t\t\txercis\n      DUP1 \t\t\tata(_s\n      PUSH 40\t\t\tEx\n      DUP4 \t\t\t       em\n      DUP6 \t\t\tance);\\r\n      SUB \t\t\tdistance);\\r\\n        emi\n      SLT \t\t\tn, _distance);\\r\\n        emit...\n      ISZERO \t\t\ttion, _distance);\\r\\n        e...\n      PUSH [tag] 47\t\t\ttion, _distance);\\r\\n        e...\n      JUMPI \t\t\ttion, _distance);\\r\\n        e...\n      PUSH [tag] 48\t\t\tseDataAdded(_memberId, _date, ...\n      PUSH [tag] 28\t\t\tseDataAdded(_memberId, _date, ...\n      JUMP \t\t\tseDataAdded(_memberId, _date, ...\n    tag 48\t\t\tseDataAdded(_memberId, _date, ...\n      JUMPDEST \t\t\tseDataAdded(_memberId, _date, ...\n    tag 47\t\t\ttion, _distance);\\r\\n        e...\n      JUMPDEST \t\t\ttion, _distance);\\r\\n        e...\n      PUSH 0\t\t\t,\n      PUSH [tag] 49\t\t\t returns (ExerciseData memory)...\n      DUP6 \t\t\turn exe\n      DUP3 \t\t\t      \n      DUP7 \t\t\tmory) {\\r\\n\n      ADD \t\t\ta memory) {\\r\\n        r\n      PUSH [tag] 32\t\t\t returns (ExerciseData memory)...\n      JUMP \t\t\t returns (ExerciseData memory)...\n    tag 49\t\t\t returns (ExerciseData memory)...\n      JUMPDEST \t\t\t returns (ExerciseData memory)...\n      SWAP3 \t\t\tublic view returns (ExerciseDa...\n      POP \t\t\tublic view returns (ExerciseDa...\n      POP \t\t\tciseDataByDate(uint _memberId,...\n      PUSH 20\t\t\tun\n      PUSH [tag] 50\t\t\t _fromMemberId, uint _toMember...\n      DUP6 \t\t\tt) publ\n      DUP3 \t\t\tnt _am\n      DUP7 \t\t\temberId, \n      ADD \t\t\t_toMemberId, uint _amo\n      PUSH [tag] 32\t\t\t _fromMemberId, uint _toMember...\n      JUMP \t\t\t _fromMemberId, uint _toMember...\n    tag 50\t\t\t _fromMemberId, uint _toMember...\n      JUMPDEST \t\t\t _fromMemberId, uint _toMember...\n      SWAP2 \t\t\tMoney(uint _fromMemberId, uint...\n      POP \t\t\tMoney(uint _fromMemberId, uint...\n      POP \t\t\td][_date];\\r\\n    }\\r\\n\\r\\n   ...\n      SWAP3 \t\t\tt _distance) public {\\r\\n     ...\n      POP \t\t\tt _distance) public {\\r\\n     ...\n      SWAP3 \t\t\tt _distance) public {\\r\\n     ...\n      SWAP1 \t\t\tt _distance) public {\\r\\n     ...\n      POP \t\t\tt _distance) public {\\r\\n     ...\n      JUMP \t\t\tt _distance) public {\\r\\n     ...\n    tag 33\t\t\t(balances[_fromMemberId] >= _a...\n      JUMPDEST \t\t\t(balances[_fromMemberId] >= _a...\n      PUSH [tag] 52\t\t\t -= _amount;\\r\\n    //    \n      DUP2 \t\t\t//   \n      PUSH [tag] 30\t\t\t -= _amount;\\r\\n    //    \n      JUMP \t\t\t -= _amount;\\r\\n    //    \n    tag 52\t\t\t -= _amount;\\r\\n    //    \n      JUMPDEST \t\t\t -= _amount;\\r\\n    //    \n      DUP3 \t\t\terI\n      MSTORE \t\t\tromMemberId] -= _amount;\\r\\n  ...\n      POP \t\t\t(balances[_fromMemberId] >= _a...\n      POP \t\t\t(balances[_fromMemberId] >= _a...\n      JUMP \t\t\t(balances[_fromMemberId] >= _a...\n    tag 11\t\t\tMemberId] += _amount;\\r\\n    /...\n      JUMPDEST \t\t\tMemberId] += _amount;\\r\\n    /...\n      PUSH 0\t\t\tTran\n      PUSH 60\t\t\tew\n      DUP3 \t\t\t) public \n      ADD \t\t\tndex) public view \n      SWAP1 \t\t\t(uint _index) public view \n      POP \t\t\t(uint _index) public view \n      PUSH [tag] 54\t\t\tint, uint, uint) {\\r\\n    //  ...\n      PUSH 0\t\t\t못\n      DUP4 \t\t\t.length, \n      ADD \t\t\tfers.length, \"잘못된\n      DUP7 \t\t\tx < tr\n      PUSH [tag] 33\t\t\tint, uint, uint) {\\r\\n    //  ...\n      JUMP \t\t\tint, uint, uint) {\\r\\n    //  ...\n    tag 54\t\t\tint, uint, uint) {\\r\\n    //  ...\n      JUMPDEST \t\t\tint, uint, uint) {\\r\\n    //  ...\n      PUSH [tag] 55\t\t\t\\r\\n    //     Transfer storag...\n      PUSH 20\t\t\t  \n      DUP4 \t\t\t];\\r\\n    /\n      ADD \t\t\tndex];\\r\\n    //    \n      DUP6 \t\t\tnsfers\n      PUSH [tag] 33\t\t\t\\r\\n    //     Transfer storag...\n      JUMP \t\t\t\\r\\n    //     Transfer storag...\n    tag 55\t\t\t\\r\\n    //     Transfer storag...\n      JUMPDEST \t\t\t\\r\\n    //     Transfer storag...\n      PUSH [tag] 56\t\t\tansfer.fromMemberId, transfer....\n      PUSH 40\t\t\t}\\r\n      DUP4 \t\t\t);\\r\\n    /\n      ADD \t\t\tount);\\r\\n    // }\\r\\n\n      DUP5 \t\t\tansfer\n      PUSH [tag] 33\t\t\tansfer.fromMemberId, transfer....\n      JUMP \t\t\tansfer.fromMemberId, transfer....\n    tag 56\t\t\tansfer.fromMemberId, transfer....\n      JUMPDEST \t\t\tansfer.fromMemberId, transfer....\n      SWAP5 \t\t\tMemberId] += _amount;\\r\\n    /...\n      SWAP4 \t\t\tMemberId] += _amount;\\r\\n    /...\n      POP \t\t\tMemberId] += _amount;\\r\\n    /...\n      POP \t\t\tMemberId] += _amount;\\r\\n    /...\n      POP \t\t\tMemberId] += _amount;\\r\\n    /...\n      POP \t\t\tMemberId] += _amount;\\r\\n    /...\n      JUMP \t\t\tMemberId] += _amount;\\r\\n    /...\n    tag 14\t\t\t\n      JUMPDEST \t\t\t\n      PUSH 0\t\t\t\n      DUP1 \t\t\t\n      PUSH 0\t\t\t\n      DUP1 \t\t\t\n      PUSH 0\t\t\t\n      PUSH A0\t\t\t\n      DUP7 \t\t\t\n      DUP9 \t\t\t\n      SUB \t\t\t\n      SLT \t\t\t\n      ISZERO \t\t\t\n      PUSH [tag] 58\t\t\t\n      JUMPI \t\t\t\n      PUSH [tag] 59\t\t\t\n      PUSH [tag] 28\t\t\t\n      JUMP \t\t\t\n    tag 59\t\t\t\n      JUMPDEST \t\t\t\n    tag 58\t\t\t\n      JUMPDEST \t\t\t\n      PUSH 0\t\t\t\n      PUSH [tag] 60\t\t\t\n      DUP9 \t\t\t\n      DUP3 \t\t\t\n      DUP10 \t\t\t\n      ADD \t\t\t\n      PUSH [tag] 32\t\t\t\n      JUMP \t\t\t\n    tag 60\t\t\t\n      JUMPDEST \t\t\t\n      SWAP6 \t\t\t\n      POP \t\t\t\n      POP \t\t\t\n      PUSH 20\t\t\t\n      PUSH [tag] 61\t\t\t\n      DUP9 \t\t\t\n      DUP3 \t\t\t\n      DUP10 \t\t\t\n      ADD \t\t\t\n      PUSH [tag] 32\t\t\t\n      JUMP \t\t\t\n    tag 61\t\t\t\n      JUMPDEST \t\t\t\n      SWAP5 \t\t\t\n      POP \t\t\t\n      POP \t\t\t\n      PUSH 40\t\t\t\n      PUSH [tag] 62\t\t\t\n      DUP9 \t\t\t\n      DUP3 \t\t\t\n      DUP10 \t\t\t\n      ADD \t\t\t\n      PUSH [tag] 32\t\t\t\n      JUMP \t\t\t\n    tag 62\t\t\t\n      JUMPDEST \t\t\t\n      SWAP4 \t\t\t\n      POP \t\t\t\n      POP \t\t\t\n      PUSH 60\t\t\t\n      PUSH [tag] 63\t\t\t\n      DUP9 \t\t\t\n      DUP3 \t\t\t\n      DUP10 \t\t\t\n      ADD \t\t\t\n      PUSH [tag] 32\t\t\t\n      JUMP \t\t\t\n    tag 63\t\t\t\n      JUMPDEST \t\t\t\n      SWAP3 \t\t\t\n      POP \t\t\t\n      POP \t\t\t\n      PUSH 80\t\t\t\n      PUSH [tag] 64\t\t\t\n      DUP9 \t\t\t\n      DUP3 \t\t\t\n      DUP10 \t\t\t\n      ADD \t\t\t\n      PUSH [tag] 32\t\t\t\n      JUMP \t\t\t\n    tag 64\t\t\t\n      JUMPDEST \t\t\t\n      SWAP2 \t\t\t\n      POP \t\t\t\n      POP \t\t\t\n      SWAP3 \t\t\t\n      SWAP6 \t\t\t\n      POP \t\t\t\n      SWAP3 \t\t\t\n      SWAP6 \t\t\t\n      SWAP1 \t\t\t\n      SWAP4 \t\t\t\n      POP \t\t\t\n      JUMP \t\t\t\n    tag 34\t\t\t\n      JUMPDEST \t\t\t\n      PUSH [tag] 66\t\t\t\n      DUP2 \t\t\t\n      PUSH [tag] 30\t\t\t\n      JUMP \t\t\t\n    tag 66\t\t\t\n      JUMPDEST \t\t\t\n      DUP3 \t\t\t\n      MSTORE \t\t\t\n      POP \t\t\t\n      POP \t\t\t\n      JUMP \t\t\t\n    tag 35\t\t\t\n      JUMPDEST \t\t\t\n      PUSH 60\t\t\t\n      DUP3 \t\t\t\n      ADD \t\t\t\n      PUSH 0\t\t\t\n      DUP3 \t\t\t\n      ADD \t\t\t\n      MLOAD \t\t\t\n      PUSH [tag] 68\t\t\t\n      PUSH 0\t\t\t\n      DUP6 \t\t\t\n      ADD \t\t\t\n      DUP3 \t\t\t\n      PUSH [tag] 34\t\t\t\n      JUMP \t\t\t\n    tag 68\t\t\t\n      JUMPDEST \t\t\t\n      POP \t\t\t\n      PUSH 20\t\t\t\n      DUP3 \t\t\t\n      ADD \t\t\t\n      MLOAD \t\t\t\n      PUSH [tag] 69\t\t\t\n      PUSH 20\t\t\t\n      DUP6 \t\t\t\n      ADD \t\t\t\n      DUP3 \t\t\t\n      PUSH [tag] 34\t\t\t\n      JUMP \t\t\t\n    tag 69\t\t\t\n      JUMPDEST \t\t\t\n      POP \t\t\t\n      PUSH 40\t\t\t\n      DUP3 \t\t\t\n      ADD \t\t\t\n      MLOAD \t\t\t\n      PUSH [tag] 70\t\t\t\n      PUSH 40\t\t\t\n      DUP6 \t\t\t\n      ADD \t\t\t\n      DUP3 \t\t\t\n      PUSH [tag] 34\t\t\t\n      JUMP \t\t\t\n    tag 70\t\t\t\n      JUMPDEST \t\t\t\n      POP \t\t\t\n      POP \t\t\t\n      POP \t\t\t\n      POP \t\t\t\n      JUMP \t\t\t\n    tag 20\t\t\t\n      JUMPDEST \t\t\t\n      PUSH 0\t\t\t\n      PUSH 60\t\t\t\n      DUP3 \t\t\t\n      ADD \t\t\t\n      SWAP1 \t\t\t\n      POP \t\t\t\n      PUSH [tag] 72\t\t\t\n      PUSH 0\t\t\t\n      DUP4 \t\t\t\n      ADD \t\t\t\n      DUP5 \t\t\t\n      PUSH [tag] 35\t\t\t\n      JUMP \t\t\t\n    tag 72\t\t\t\n      JUMPDEST \t\t\t\n      SWAP3 \t\t\t\n      SWAP2 \t\t\t\n      POP \t\t\t\n      POP \t\t\t\n      JUMP \t\t\t\n    tag 23\t\t\t\n      JUMPDEST \t\t\t\n      PUSH 0\t\t\t\n      PUSH A0\t\t\t\n      DUP3 \t\t\t\n      ADD \t\t\t\n      SWAP1 \t\t\t\n      POP \t\t\t\n      PUSH [tag] 74\t\t\t\n      PUSH 0\t\t\t\n      DUP4 \t\t\t\n      ADD \t\t\t\n      DUP9 \t\t\t\n      PUSH [tag] 33\t\t\t\n      JUMP \t\t\t\n    tag 74\t\t\t\n      JUMPDEST \t\t\t\n      PUSH [tag] 75\t\t\t\n      PUSH 20\t\t\t\n      DUP4 \t\t\t\n      ADD \t\t\t\n      DUP8 \t\t\t\n      PUSH [tag] 33\t\t\t\n      JUMP \t\t\t\n    tag 75\t\t\t\n      JUMPDEST \t\t\t\n      PUSH [tag] 76\t\t\t\n      PUSH 40\t\t\t\n      DUP4 \t\t\t\n      ADD \t\t\t\n      DUP7 \t\t\t\n      PUSH [tag] 33\t\t\t\n      JUMP \t\t\t\n    tag 76\t\t\t\n      JUMPDEST \t\t\t\n      PUSH [tag] 77\t\t\t\n      PUSH 60\t\t\t\n      DUP4 \t\t\t\n      ADD \t\t\t\n      DUP6 \t\t\t\n      PUSH [tag] 33\t\t\t\n      JUMP \t\t\t\n    tag 77\t\t\t\n      JUMPDEST \t\t\t\n      PUSH [tag] 78\t\t\t\n      PUSH 80\t\t\t\n      DUP4 \t\t\t\n      ADD \t\t\t\n      DUP5 \t\t\t\n      PUSH [tag] 33\t\t\t\n      JUMP \t\t\t\n    tag 78\t\t\t\n      JUMPDEST \t\t\t\n      SWAP7 \t\t\t\n      SWAP6 \t\t\t\n      POP \t\t\t\n      POP \t\t\t\n      POP \t\t\t\n      POP \t\t\t\n      POP \t\t\t\n      POP \t\t\t\n      JUMP \t\t\t\n    .data\n"
}